{
  "_format": "hh-sol-artifact-1",
  "contractName": "Auction",
  "sourceName": "contracts/Auction.sol",
  "abi": [
    {
      "inputs": [],
      "stateMutability": "nonpayable",
      "type": "constructor"
    },
    {
      "anonymous": false,
      "inputs": [
        {
          "indexed": true,
          "internalType": "address",
          "name": "sender",
          "type": "address"
        },
        {
          "indexed": false,
          "internalType": "uint256",
          "name": "amount",
          "type": "uint256"
        }
      ],
      "name": "Bid",
      "type": "event"
    },
    {
      "anonymous": false,
      "inputs": [
        {
          "indexed": false,
          "internalType": "address",
          "name": "highestBidder",
          "type": "address"
        },
        {
          "indexed": false,
          "internalType": "uint256",
          "name": "highestBid",
          "type": "uint256"
        }
      ],
      "name": "End",
      "type": "event"
    },
    {
      "anonymous": false,
      "inputs": [],
      "name": "Start",
      "type": "event"
    },
    {
      "anonymous": false,
      "inputs": [
        {
          "indexed": true,
          "internalType": "address",
          "name": "bidder",
          "type": "address"
        },
        {
          "indexed": false,
          "internalType": "uint256",
          "name": "amount",
          "type": "uint256"
        }
      ],
      "name": "Withdraw",
      "type": "event"
    },
    {
      "inputs": [],
      "name": "bid",
      "outputs": [],
      "stateMutability": "payable",
      "type": "function"
    },
    {
      "inputs": [
        {
          "internalType": "address",
          "name": "",
          "type": "address"
        }
      ],
      "name": "bids",
      "outputs": [
        {
          "internalType": "uint256",
          "name": "",
          "type": "uint256"
        }
      ],
      "stateMutability": "view",
      "type": "function"
    },
    {
      "inputs": [],
      "name": "end",
      "outputs": [],
      "stateMutability": "nonpayable",
      "type": "function"
    },
    {
      "inputs": [],
      "name": "endAt",
      "outputs": [
        {
          "internalType": "uint256",
          "name": "",
          "type": "uint256"
        }
      ],
      "stateMutability": "view",
      "type": "function"
    },
    {
      "inputs": [],
      "name": "ended",
      "outputs": [
        {
          "internalType": "bool",
          "name": "",
          "type": "bool"
        }
      ],
      "stateMutability": "view",
      "type": "function"
    },
    {
      "inputs": [],
      "name": "highestBid",
      "outputs": [
        {
          "internalType": "uint256",
          "name": "",
          "type": "uint256"
        }
      ],
      "stateMutability": "view",
      "type": "function"
    },
    {
      "inputs": [],
      "name": "highestBidder",
      "outputs": [
        {
          "internalType": "address",
          "name": "",
          "type": "address"
        }
      ],
      "stateMutability": "view",
      "type": "function"
    },
    {
      "inputs": [],
      "name": "seller",
      "outputs": [
        {
          "internalType": "address payable",
          "name": "",
          "type": "address"
        }
      ],
      "stateMutability": "view",
      "type": "function"
    },
    {
      "inputs": [
        {
          "internalType": "uint256",
          "name": "startingBid",
          "type": "uint256"
        }
      ],
      "name": "start",
      "outputs": [],
      "stateMutability": "nonpayable",
      "type": "function"
    },
    {
      "inputs": [],
      "name": "started",
      "outputs": [
        {
          "internalType": "bool",
          "name": "",
          "type": "bool"
        }
      ],
      "stateMutability": "view",
      "type": "function"
    },
    {
      "inputs": [],
      "name": "withdraw",
      "outputs": [],
      "stateMutability": "payable",
      "type": "function"
    }
  ],
  "bytecode": "0x608060405234801561001057600080fd5b50600080546001600160a01b03191633179055610713806100326000396000f3fe60806040526004361061009c5760003560e01c806362ea82db1161006457806362ea82db146101425780637cc3ae8c1461017d57806391f901571461019357806395805dad146101b3578063d57bde79146101d3578063efbe1c1c146101e957600080fd5b806308551a53146100a157806312fa6feb146100de5780631998aeef1461010f5780631f2698ab146101195780633ccfd60b1461013a575b600080fd5b3480156100ad57600080fd5b506000546100c1906001600160a01b031681565b6040516001600160a01b0390911681526020015b60405180910390f35b3480156100ea57600080fd5b506000546100ff90600160a81b900460ff1681565b60405190151581526020016100d5565b6101176101fe565b005b34801561012557600080fd5b506000546100ff90600160a01b900460ff1681565b610117610338565b34801561014e57600080fd5b5061016f61015d36600461066d565b60046020526000908152604090205481565b6040519081526020016100d5565b34801561018957600080fd5b5061016f60015481565b34801561019f57600080fd5b506003546100c1906001600160a01b031681565b3480156101bf57600080fd5b506101176101ce36600461069d565b61040f565b3480156101df57600080fd5b5061016f60025481565b3480156101f557600080fd5b50610117610518565b600054600160a01b900460ff1661025c5760405162461bcd60e51b815260206004820152601c60248201527f4e6f7420737461727465642079657420746869732061756374696f6e0000000060448201526064015b60405180910390fd5b60015442106102955760405162461bcd60e51b8152602060048201526005602482015264115b99195960da1b6044820152606401610253565b60025434116102a357600080fd5b6003546001600160a01b0316156102e7576002546003546001600160a01b0316600090815260046020526040812080549091906102e19084906106b6565b90915550505b346002819055600380546001600160a01b03191633908117909155604051918252907fe684a55f31b79eca403df938249029212a5925ec6be8012e099b45bc1019e5d29060200160405180910390a2565b33600081815260046020526040808220805490839055905190929083908381818185875af1925050503d806000811461038d576040519150601f19603f3d011682016040523d82523d6000602084013e610392565b606091505b50509050806103d65760405162461bcd60e51b815260206004820152601060248201526f1dda5d1a191c985dc818dc985cda195960821b6044820152606401610253565b60405182815233907f884edad9ce6fa2440d8a54cc123490eb96d2768479d49ff9c7366125a94243649060200160405180910390a25050565b600054600160a01b900460ff161561045b5760405162461bcd60e51b815260206004820152600f60248201526e616c72656164792072756e6e696e6760881b6044820152606401610253565b6000546001600160a01b031633146104c45760405162461bcd60e51b815260206004820152602660248201527f796f7520646964206e6f74207374617274207468652061756374696f6e20636860448201526565617465722160d01b6064820152608401610253565b6000805460ff60a01b1916600160a01b1790556104e442620d2f006106b6565b60015560028190556040517f1b55ba3aa851a46be3b365aee5b5c140edd620d578922f3e8466d2cbd96f954b90600090a150565b600054600160a01b900460ff166105695760405162461bcd60e51b81526020600482015260156024820152746e65656420746f207374617274206265666f72652160581b6044820152606401610253565b6001544210156105bb5760405162461bcd60e51b815260206004820152601860248201527f41756374696f6e206973207374696c6c206f6e676f696e6700000000000000006044820152606401610253565b600054600160a81b900460ff161561060e5760405162461bcd60e51b815260206004820152601660248201527541756374696f6e20616c726561647920656e6465642160501b6044820152606401610253565b6000805460ff60a81b1916600160a81b179055600354600254604080516001600160a01b03909316835260208301919091527f7d7570b046e5ead3a4f3fbc9fa2445113625a1e79823776146316bafed6b8cc5910160405180910390a1565b60006020828403121561067f57600080fd5b81356001600160a01b038116811461069657600080fd5b9392505050565b6000602082840312156106af57600080fd5b5035919050565b808201808211156106d757634e487b7160e01b600052601160045260246000fd5b9291505056fea26469706673582212202e2eeafaa75c3739d205a990f053b904140856c70359c95981c367b31999075e64736f6c63430008110033",
  "linkReferences": {},
  "deployedLinkReferences": {}
}